:020000040800F2
:10000000080400200101000849030008110300084A
:1000100045030008490100082D0500080000000004
:100020000000000000000000000000006D03000858
:100030004D010008000000004B03000859040008AF
:100040001B0100081B0100081B0100081B01000820
:100050001B0100081B0100085D0100086D0100087C
:100060007D0100081B0100081B0100081B0100089E
:100070001B0100081B0100081B0100081B010008F0
:100080001B0100081B0100081B0100081B010008E0
:100090001B0100081B0100081B0100081B010008D0
:1000A0001B0100081B0100081B0100081B010008C0
:1000B0001B0100081B0100081B0100081B010008B0
:1000C0001B0100081B0100081B0100081B010008A0
:1000D0001B0100081B0100081B0100081B01000890
:1000E0001B0100081B0100081B010008DFF80CD0F1
:1000F00000F018F800480047B50500080804002083
:100100000648804706480047FEE7FEE7FEE7FEE7B1
:10011000FEE7FEE7FEE7FEE7FEE7FEE781040008F4
:10012000ED000008064C074D06E0E06840F00103D2
:1001300094E8070098471034AC42F6D3FFF7DAFF93
:10014000C0050008E005000800BFFEE7704700009A
:1001500006200149088070470400002010B50120E6
:1001600000F02AF8012000F021F810BD10B502209F
:1001700000F022F8022000F019F810BD10B504209C
:1001800000F01AF828B1FFF7E3FF04A1064800F0D9
:10019000B8F9042000F00AF810BD0000CFC9CDAFB7
:1001A000BFC6BCBC0A00000000380140014908601D
:1001B0007047000014040140014600200022074B54
:1001C0001B6803EA0102054B14331B680B4013B193
:1001D0000AB1012000E00020704700000004014047
:1001E0002DE9F041024600250026002000230024CE
:1001F000002791F803C00CF00F0591F803C00CF034
:10020000100CBCF1000F03D091F802C04CEA0505B8
:1002100091F800C0BCF1000F31D0146800202BE031
:100220004FF0010C0CFA00F3B1F800C00CEA030621
:100230009E4220D183004FF00F0C0CFA03F7BC4311
:1002400005FA03FC4CEA040491F803C0BCF1280F42
:1002500006D14FF0010C0CFA00FCC2F814C00AE001
:1002600091F803C0BCF1480F05D14FF0010C0CFA16
:1002700000FCC2F810C0401C0828D1D31460B1F8AB
:1002800000C0BCF1FF0F34DD546800202EE000F107
:10029000080C4FF0010808FA0CF3B1F800C00CEAA2
:1002A00003069E4221D183004FF00F0C0CFA03F796
:1002B000BC4305FA03FC4CEA040491F803C0BCF10A
:1002C000280F05D100F1080C08FA0CF8C2F81480C8
:1002D00091F803C0BCF1480F07D100F1080C4FF0B2
:1002E000010808FA0CF8C2F81080401C0828CED388
:1002F0005460BDE8F08102460020D3680B400BB18A
:10030000012000E0002070474161704701617047A3
:1003100000BFFEE708B500F0B3F80121102000F09F
:1003200015F84FF6FF70ADF8000010208DF80300AF
:1003300003208DF8020069460148FFF751FF08BD10
:100340000010014000BFFEE77047704729B1064A20
:1003500092690243044B9A6104E0034A9269824322
:10036000014B9A617047000000100240704710B5C1
:1003700000F002F810BD00000CB5002001900090C4
:100380003348006840F480303149086000BF30488D
:10039000006800F4003000900198401C0190009823
:1003A00018B90198B0F5A06FF1D12948006800F4A0
:1003B000003010B10120009001E000200090009872
:1003C000012843D12348006840F01000214908600B
:1003D0000846006820F0030008600846006840F006
:1003E000020008601A484068194948600846406899
:1003F00048600846406840F48060486008464068AD
:1004000020F47C1048600846406840F4E8104860DA
:100410000846006840F08070086000BF0C48006823
:1004200000F000700028F9D00948406820F003006F
:10043000074948600846406840F00200486000BF35
:100440000348406800F00C000828F9D10CBD0000FA
:10045000001002400020024010B508480068322118
:10046000B0FBF1F201FB120008B900F061F803489B
:100470000068401C0149086010BD00000000002019
:1004800010B51348006840F00100114908600846A3
:100490004068104908400E494860084600680E4907
:1004A00008400B4908600846006820F48020086076
:1004B0000846406820F4FE0048604FF41F00886042
:1004C000FFF755FF4FF000600449086010BD0000C1
:1004D000001002400000FFF8FFFFF6FE08ED00E00C
:1004E00002460020B1F5007F00D100BF13880B4009
:1004F0000BB1012000E000207047C1F308028280A8
:10050000704770B506460C4600250BE0615D30462D
:10051000FFF7F3FF00BF40213046FFF7E1FF00285F
:10052000F9D06D1C605D0028F0D170BD00BFFEE702
:1005300010B54FF400510848FFF7DDFE28B14FF425
:1005400000510548FFF7E0FE04E04FF40051024877
:10055000FFF7DCFE10BD00000010014002E008C8FB
:10056000121F08C1002AFAD170477047002001E02D
:1005700001C1121F002AFBD1704700BF011EA0F16C
:100580000100FBD17047000010B54FF6FF7107481E
:10059000FFF7BCFE0648FFF7F0FF4FF6FF71034878
:1005A000FFF7B2FE0248FFF7E8FF10BD0010014060
:1005B000808D5B00FFF7AEFE01E0FFF7E5FFFCE793
:1005C000E005000800000020080000005C050008AD
:1005D000E805000808000020000400006C05000881
:0805E000000000000000000013
:04000005080000ED02
:00000001FF
